:020000040000FA
:020000000528D1
:08000800090083160313073001
:1000100085008601183087008801890106309F001D
:1000200009309300831228309400850186018701EE
:10003000880189010616861606172B208B170B17C9
:10004000572028217621DD21A12258230B24A82422
:100050004821CB2420280030A0000030A100A201BC
:10006000A301A401A501A601A701A801A901AA0154
:100070000030AB000130AC00AD01AE01AF01B0010A
:10008000B101B201B301B401B5010030B6000230D4
:10009000B700B801B901BA01BB01BC01BD01BE0185
:1000A000BF01C001CE01C101C201C301080001307E
:1000B000C700A4204D08A700BF204D08A800D420E9
:1000C0004D08A6040230C700A4204D08B200BF208E
:1000D0004D08B300D4204D08B1040330C700A4205C
:1000E0004D08BD00BF204D08BE00D4204D08BC0403
:1000F00008000616861606174708013C0319061263
:100100004708023C031986124708033C03190613EB
:10011000080046080F39C4000608F0394404860078
:10012000BE2408004708013C03199B284708023CED
:1001300003199E28A12805180134003485180134BC
:1001400000340519013400347920CD010030C60097
:1001500089209220031D4D140130C6008920922071
:10016000031DCD140230C60089209220031D4D15B9
:100170000330C60089209220031DCD150800792088
:10018000CD010430C60089209220031D4D14053096
:10019000C60089209220031DCD140630C600892098
:1001A0009220031D4D1508007920CD010730C600AF
:1001B00089209220031D4D140830C600892092200A
:1001C000031DCD140930C60089209220031D4D1552
:1001D0000A30C60089209220031DCD150B30C600C1
:1001E00089209220031D4D160800831611148312D6
:1001F00083161118F828831208008316111583122C
:100200008316111900298312080083169114831292
:100210008316911808298312080083124808930056
:10022000831614191029831208008316911583125E
:1002300083169119182983121308C8000800831621
:100240009116111683128316111A2329831208009E
:100250004030C90038214808C1004230C900382167
:100260004808C2004430C90038214808C3000800CB
:10027000F5204908C8000D210230C8000D210521D4
:1002800049080138C8000D2115211F21FD20080053
:100290004030C90052214230C90052214430C900C7
:1002A00052210800F5204908C8000D210130C8007E
:1002B0000D212008C8000D212108C8000D212308A8
:1002C000C8000D212B08C8000D212C08C8000D21E5
:1002D0002E08C8000D213608C8000D213708C800B7
:1002E0000D213908C8000D21FD2008007A21852143
:1002F00096210800411C7F294E187F29A121411E0B
:100300000800411D08003A140800421C8A29CE1832
:100310008A29B021C21C8F29CE188F29BF21421EE5
:1003200008004219BA14C219BB140800C31C9B2947
:100330004E199B29CE21431E0800C31D08003B1502
:1003400008002008003C0319AA292B08003C0319C7
:10035000AD29AA2924144E1408002F144E140800A5
:100360002008003C0319B9292B08003C0319BC29BB
:10037000B929A414CE140800AF14CE140800200824
:10038000003C0319C8292B08003C0319CB29C829B4
:10039000A514CE140800B014CE1408002008003CA8
:1003A0000319D7292B08003C0319DA29D729251569
:1003B0004E15080030154E1508002818A101A81880
:1003C0000130A818A100281902302819A10020081E
:1003D000003C0319F4292008013C03191B2A2008BA
:1003E000023C0319472A080024082504C4002608F3
:1003F0000739440403190800662222082102031960
:10040000102A031C042A0A2A0130A000A3000814A1
:10041000881008000230A000A3000810881408000B
:10042000812221089422F030A9000816E030AA00A9
:100430000330A0000800280803190800281C242AFB
:100440002418342A2618342AA81C2A2AA418342A44
:10045000A618342A281D08002619342A2419342AFB
:100460002508031D412A342A0810881081222108FA
:100470009422F030A9000816E030AA000330A00052
:1004800008000230A000A300081088140800280803
:1004900003190800281D502A2519342A2619342A40
:1004A000A81C562AA518342AA618342A281C080085
:1004B0002618342A2518342A2408031D602A342AD1
:1004C0000130A000A3000814881008002418792A1D
:1004D000A4187B2A24197E2A2618792AA6187B2A92
:1004E00026197E2A25197E2AA5187B2A2518792AFD
:1004F0000800A20108000130A20008000230A2009A
:10050000080021080319882A013C03198C2A902A23
:100510002410251026100800A410A510A61008000D
:100520002411251126110800C400440803194E1097
:100530004408013C0319CE104408023C03194E1133
:1005400008003318AC01B3180130B318AC003319EC
:1005500002303319AC002B08003C0319B82A2B08D1
:10056000013C0319DF2A2B08023C03190B2B08005E
:100570002F083004C4003108073944040319080067
:100580002A232D082C020319D42A031CC82ACE2A98
:100590000130AB00AE008816081308000230AB0033
:1005A000AE0088120817080045232C089422F0306A
:1005B000B4008914E030B5000330AB000800330804
:1005C00003190800331CE82A2F18F82A3118F82AD2
:1005D000B31CEE2AAF18F82AB118F82A331D080008
:1005E0003119F82A2F19F82A3008031D052BF82A8B
:1005F0008812081345232C089422F030B400891483
:10060000E030B5000330AB0008000230AB00AE00B4
:10061000881208170800330803190800331D142B2B
:100620003019F82A3119F82AB31C1A2BB018F82AF5
:10063000B118F82A331C08003118F82A3018F82AA3
:100640002F08031D242BF82A0130AB00AE008816BA
:10065000081308002F183D2BAF183F2B2F19422BE2
:1006600031183D2BB1183F2B3119422B3019422B39
:10067000B0183F2B30183D2B0800AD0108000130A9
:10068000AD0008000230AD0008002C0803194C2B07
:10069000013C0319502B542B2F103010311008003F
:1006A000AF10B010B11008002F1130113111080037
:1006B0003E18B701BE180130BE18B7003E1902300F
:1006C0003E19B7003608003C03196F2B3608013C71
:1006D0000319942B3608023C0319BE2B08003A0874
:1006E0003B04C4003C080739440403190800DD2317
:1006F0003808370203198B2B031C7F2B852B013005
:10070000B600B9000815881108000230B600B9001B
:10071000081188150800F823F030BF008716E03074
:10072000C0000330B60008003E08031908003E1C54
:100730009D2B3A18AD2B3C18AD2BBE1CA32BBA1821
:10074000AD2BBC18AD2B3E1D08003C19AD2B3A1942
:10075000AD2B3B08031DB82BAD2B08118811F823D6
:10076000F030BF008716E030C0000330B60008004C
:100770000230B600B9000811881508003E080319B8
:1007800008003E1DC72B3B19AD2B3C19AD2BBE1CE1
:10079000CD2BBB18AD2BBC18AD2B3E1C08003C1854
:1007A000AD2B3B18AD2B3A08031DD72BAD2B0130D9
:1007B000B600B9000815881108003A18F02BBA18CD
:1007C000F22B3A19F52B3C18F02BBC18F22B3C19E4
:1007D000F52B3B19F52BBB18F22B3B18F02B08001F
:1007E000B80108000130B80008000230B800080065
:1007F00037080319FF2B013C0319032C072C3A106F
:100800003B103C100800BA10BB10BC1008003A1195
:100810003B113C1108000F244224752408002008D5
:10082000033C031D2D2CA719202C2719242C260846
:100830000839031D272CAA0803192A2CAA0308002B
:100840000816E030AA000800E030AA000800E030F6
:10085000AA0008000430A00008002008043C031D82
:10086000080027183D2C2719382CA719382C080008
:100870000330A000E030AA0008000030A0000730DC
:10088000A60508002B08033C031D602CB219532C4D
:100890003219572C31080839031D5A2CB508031991
:1008A0005D2CB50308008914E030B5000800E03085
:1008B000B5000800E030B50008000430AB000800C7
:1008C0002B08043C031D08003218702C32196B2CC5
:1008D000B2196B2C08000330AB00E030B500080003
:1008E0000030AB000730B10508003608033C031D9B
:1008F000932CBD19862C3D198A2C3C080839031D00
:100900008D2CC0080319902CC00308008716E03016
:10091000C0000800E030C0000800E030C00008005F
:100920000430B60008003608043C031D08003D18DA
:10093000A32C3D199E2CBD199E2C08000330B60037
:10094000E030C00008000030B6000730BC050800E9
:10095000A9080319AD2CA903AF2CA71D0812B408D0
:100960000319B42CB403B62CB21D8910BF080319A7
:10097000BB2CBF030800BD1D871208001030CA0041
:100980000000CA0BC02C0800C830CA0000000000DC
:10099000CA0BC62C08000A30CB00C424CB0BCD2CCC
:0209A00008004D
:02400E00313F40
:00000001FF
