:020000040000FA
:0200000089284D
:080008000528B300030EB4004B
:100010008C1910208C11340E8300B30E330E09009E
:100020008316031314197D28941A1B2883121308AE
:10003000A6011416080083121308A608031D24281D
:10004000A300A60A141608002308013C03192A2855
:10005000141608002608013C031950282608023C03
:10006000031955282608033C03195A282608043C7E
:1000700003195F282608053C031964282608063C56
:10008000031969282608073C03196E282608083C2E
:10009000031973282608093C031978281416080048
:1000A0001308A700A60A141608001308A800A60A39
:1000B000141608001308A900A60A1416080013084D
:1000C000AA00A60A141608001308AB00A60A141604
:1000D00008001308AC00A60A141608001308AD00A7
:1000E000A60A141608001308AE00A60A1416080083
:1000F0001308AF00A60A1416080083122308023C56
:10010000031D862820089300141608009301141676
:10011000080083160313FF30860081131830870010
:100120000030880042309300803094008C15831298
:10013000363094008501860187018801A001A20163
:10014000A301A601A701A801A901AA01AB01AC0165
:10015000AD01AE01AF01C2208B170B17B2201521E4
:10016000FC21AE28A001061C2014861CA014061E2B
:10017000BB28061D2015061EBF28861DA015061EBD
:10018000201608000130B200CC200230B200CC2092
:100190000330B200CC200800FC210330F520F6210A
:1001A0000330F520EF210330F520EF210230F52058
:1001B000EF212830FC200C30FC200130FC20F621FF
:1001C0000630FC2008003208013C0319871432086D
:1001D000023C031907153208033C03198716000077
:1001E000000087100711871208000710B000300EBA
:1001F000F0398800E3200800B10007103108F03919
:100200008800E320310EF0398800E320EF21080058
:10021000B10007143108F0398800E320310EF039BD
:100220008800E3200710EF2108000130B200270802
:10023000B3002808B40029082E210230B2002A0891
:10024000B3002B08B4002C082E210330B2002D0877
:10025000B3002E08B4002F082E210800BA00803009
:10026000FC20453008216C300821653008217630AB
:10027000082161300821743008216F300821723064
:100280000821203008213208303E08212030082182
:10029000203008212030082120300821203008217A
:1002A00020300821C030FC203308003C0319AD2960
:1002B0003308033C0319CE294C300821653008214E
:1002C00076300821653008216C3008212030082163
:1002D000340803196F29013C03197429792947301F
:1002E0000821463008217E2931300821203008219C
:1002F0007E2932300821203008217E292030082133
:100300002D300821203008213A08013C0319972993
:100310003A08023C0319A229203008212030082184
:1003200020300821203008212030082108005530D5
:1003300008215030082120300821203008212030A9
:1003400008210800443008214F3008215730082187
:100350004E300821203008210800203008212030AC
:1003600008212030082149300821443008214C3030
:100370000821453008212030082120300821203074
:100380000821203008212030082120300821203089
:1003900008212030082120300821080020300821C1
:1003A000443008214F3008214F30082152300821B5
:1003B000203008214F3008215030082145300821D5
:1003C0004E3008212030082120300821203008211B
:1003D0002030082120300821203008210800C830B2
:1003E000B50000000000B50BF12908000530B6008B
:1003F000EF21B60BF82908003230B600EF21B60B1A
:04040000FE290800C9
:02400E00313F40
:00000001FF
