:020000040000FA
:0200000089284D
:080008000528B300030EB4004B
:100010008C1910208C11340E8300B30E330E09009E
:100020008316031314197D28941A1B2883121308AE
:10003000A6011416080083121308A608031D24281D
:10004000A300A60A141608002308013C03192A2855
:10005000141608002608013C031950282608023C03
:10006000031955282608033C03195A282608043C7E
:1000700003195F282608053C031964282608063C56
:10008000031969282608073C03196E282608083C2E
:10009000031973282608093C031978281416080048
:1000A0001308A700A60A141608001308A800A60A39
:1000B000141608001308A900A60A1416080013084D
:1000C000AA00A60A141608001308AB00A60A141604
:1000D00008001308AC00A60A141608001308AD00A7
:1000E000A60A141608001308AE00A60A1416080083
:1000F0001308AF00A60A1416080083122308023C56
:10010000031D862820089300141608009301141676
:10011000080083160313FF30860081131830870010
:100120000030880044309300803094008C15831296
:10013000363094008501860187018801A001A20163
:10014000A301A601A701A801A901AA01AB01AC0165
:10015000AD01AE01AF01C0208B170B17B2201321E8
:10016000FA21AE28A001061C2014861CA014061E2D
:10017000BB28861DA015061E201620102011080081
:100180000130B200CA200230B200CA200330B200EF
:10019000CA200800FA210330F320F4210330F320B1
:1001A000ED210330F320ED210230F320ED21283042
:1001B000FA200C30FA200130FA20F4210630FA201F
:1001C00008003208013C031987143208023C031965
:1001D00007153208033C031987160000000087103A
:1001E0000711871208000710B000300EF0398800A0
:1001F000E1200800B10007103108F0398800E12043
:10020000310EF0398800E120ED210800B10007141B
:100210003108F0398800E120310EF0398800E12002
:100220000710ED2108000130B2002708B3002808AC
:10023000B40029082C210230B2002A08B3002B0890
:10024000B4002C082C210330B2002D08B3002E0876
:10025000B4002F082C210800BA008030FA20453065
:1002600006216C300621653006217630062161308A
:100270000621743006216F300621723006212030AD
:1002800006213208303E062120300621203006218A
:100290002030062120300621203006212030062182
:1002A000C030FA203308003C0319AB293308033C63
:1002B0000319CC294C300621653006217630062101
:1002C000653006216C3006212030062134080319E0
:1002D0006D29013C031972297729473006214630E0
:1002E00006217C2931300621203006217C2932303C
:1002F0000621203006217C29203006212D300621C0
:10030000203006213A08013C031995293A08023C9D
:100310000319A02920300621203006212030062193
:1003200020300621203006210800553006215030AB
:100330000621203006212030062120300621080029
:10034000443006214F300621573006214E30062119
:1003500020300621080020300621203006212030E0
:10036000062149300621443006214C300621453013
:1003700006212030062120300621203006212030A1
:100380000621203006212030062120300621203091
:1003900006212030062108002030062144300621A5
:1003A0004F3006214F3006215230062120300621E1
:1003B0004F30062150300621453006214E300621AF
:1003C0002030062120300621203006212030062151
:1003D00020300621203006210800C830B50000007A
:1003E0000000B50BEF2908000530B600ED21B60B73
:1003F000F62908003230B600ED21B60BFC290800C2
:02400E00313F40
:00000001FF
