:020000040000FA
:0200000089284D
:080008000528B300030EB4004B
:100010008C1910208C11340E8300B30E330E09009E
:100020008316031314197D28941A1B2883121308AE
:10003000A6011416080083121308A608031D24281D
:10004000A300A60A141608002308013C03192A2855
:10005000141608002608013C031950282608023C03
:10006000031955282608033C03195A282608043C7E
:1000700003195F282608053C031964282608063C56
:10008000031969282608073C03196E282608083C2E
:10009000031973282608093C031978281416080048
:1000A0001308A700A60A141608001308A800A60A39
:1000B000141608001308A900A60A1416080013084D
:1000C000AA00A60A141608001308AB00A60A141604
:1000D00008001308AC00A60A141608001308AD00A7
:1000E000A60A141608001308AE00A60A1416080083
:1000F0001308AF00A60A1416080083122308023C56
:10010000031D862820089300141608009301141676
:10011000080083160313FF30860081131830870010
:100120000030880040309300803094008C1583129A
:10013000363094008501860187018801A001A20163
:10014000A301A601A701A801A901AA01AB01AC0165
:10015000AD01AE01AF01BE208B170B17B2201121EC
:10016000F821AE28A001061C2014061EB928061D81
:100170002015061E2016A010A01108000130B200A4
:10018000C8200230B200C8200330B200C8200800E6
:10019000F8210330F120F2210330F120EB2103306C
:1001A000F120EB210230F120EB212830F8200C3037
:1001B000F8200130F820F2210630F820080032083B
:1001C000013C031987143208023C03190715320851
:1001D000033C0319871600000000871007118712DF
:1001E00008000710B000300EF0398800DF2008004A
:1001F000B10007103108F0398800DF20310EF039E6
:100200008800DF20EB210800B10007143108F03925
:100210008800DF20310EF0398800DF200710EB2145
:1002200008000130B2002708B3002808B4002908EC
:100230002A210230B2002A08B3002B08B4002C088F
:100240002A210330B2002D08B3002E08B4002F0875
:100250002A210800BA008030F820453004216C3093
:10026000042165300421763004216130042174308A
:1002700004216F300421723004212030042132081F
:10028000303E04212030042120300421203004217C
:10029000203004212030042120300421C030F820F7
:1002A0003308003C0319A9293308033C0319CA2960
:1002B0004C3004216530042176300421653004215E
:1002C0006C30042120300421340803196B29013CCF
:1002D00003197029752947300421463004217A29F1
:1002E00031300421203004217A2932300421203099
:1002F00004217A29203004212D30042120300421CA
:100300003A08013C031993293A08023C03199E2933
:100310002030042120300421203004212030042109
:1003200020300421080055300421503004212030B1
:10033000042120300421203004210800443004210D
:100340004F300421573004214E3004212030042145
:1003500008002030042120300421203004214930BD
:100360000421443004214C30042145300421203044
:1003700004212030042120300421203004212030A9
:100380000421203004212030042120300421203099
:100390000421080020300421443004214F3004217E
:1003A0004F30042152300421203004214F300421E9
:1003B00050300421453004214E30042120300421E6
:1003C0002030042120300421203004212030042159
:1003D000203004210800C830B50000000000B50B33
:1003E000ED2908000530B600EB21B60BF429080012
:0C03F0003230B600EB21B60BFA290800F1
:02400E00313F40
:00000001FF
